:0300000002063BBA
:0C063B00787FE4F6D8FD75817402068219
:1007C8002020202020202020202020202020202021
:1007D800002057656C636F6D6520746F20757365B5
:1007E80000683A202020202020743A202020202051
:1007F80020002E0044656620483A202020202054FE
:020808003A00B4
:10080A00024F006E02240026022A00000144000260
:10081A004D0258C109C10A045600000000044800EC
:10082A0000000002220200025A020002260200020E
:10083A0045006402280000C18BC108042C00000096
:01084A0000AD
:0B0A8C00EF1FAC0670011E4C70F6223C
:0B0A9700AF441209EA120A60020A4C88
:10029600756400756501E4F566F567120A97C297FD
:1002A600D293D29400000000C2937FE87E03120925
:1002B6009AD29312072C8E2A8F2BE52B6401452A9E
:1002C6007017E56720E00A0525E525700C052480F2
:1002D600080550E5507002054FE52B6402452A706B
:1002E60017E56720E00AE5251525700C152480081A
:1002F600E55015507002154FE52B6403452A70082A
:100306000567E56770020566E52B6404452A7018E3
:100316000565E5657002056420E007E4F562F563AE
:100326008006756200756301E5634562702E7BFF8A
:100336007A0779C87D017F011209297BFF7A07793F
:10034600C87D017F021209297BFF7A0779D9E4FD6E
:100356007F011209297F8A7E0012099AE5636401EA
:10036600456260030202B9300A02C20A1208C88E48
:100376005C8F5DE4FBFAF528F529742C2BF8E67002
:10038600070BBB00010A80F2C3EB9403EA9400500A
:1003960037742C2BF8E6FFC394304025EFD39439FD
:1003A600501FEF24D0F582E434FFF583AE28AF2941
:1003B6007C007D0A1204B1EF2582F529EE3583F51E
:1003C600280BBB00010A80C0756D00756E00756F45
:1003D600607B007A00795EAF5DAE5C1206C77F8AED
:1003E6007E0012099A7BFF7A0779E97D017F011267
:1003F6000929756C03AB29AA287D037F0112088B96
:10040600756C02AB5FAA5E7D0C7F0112088B7BFFC9
:100416007A0779FA7D0E7F01120929756C02AB61A4
:10042600AA607D0F7F0112088B7BFF7A0779FC7D1E
:10043600017F02120929756C02AB25AA247D0E7F65
:100446000212088B756C03AB50AA4F7D077F021210
:10045600088BD3E55F9525E55E95245013E5299530
:1004660050E54F6480F8E52864809850030202B98D
:0E047600D2977FE87E0312099AC2970202B95C
:0606C7008B6A8A6B896C4E
:1006CD00EF25E0F571EE33F570C3E57194B3E57088
:1006DD00946A4032744D2571F57174953570F570CD
:1006ED00FEAF717C007D641204C3EE8FF012054ED7
:1006FD00AE70AF717C007D641204C3AB6DAA6EA9A0
:10070D006FEC8DF08015AB6AAA6BA96CE4F5F01255
:0E071D00054EAB6DAA6EA96FE4F5F012054E05
:01072B0022AB
:1009CD00D2940000000000D2930000000000C294F9
:0D09DD000000000000C29300000000002296
:100A1E00C2930000000000C2940000000000D293B8
:080A2E000000000000D2942238
:02084C008F68B3
:10084E00756A0A85686BE4F569E56B30E704D207D3
:10085E008002C207120971E56B25E0F56B0569C3CD
:10086E00E5696480948840E11209AF30000E120AE7
:0C087E001EE56A6007156A1209CD80C7EC
:01088A00224B
:10097100200704C2948002D29400D29300000000A8
:0F09810000000000C293000000000000000022F0
:10094F00E4F569F568E56925E0F5691209AF30004E
:10095F000205690568E568C3940840E9120971AF9B
:01096F00691E
:010970002264
:1009AF00D294D200D2930000000000000000A29465
:0E09BF00920000C29300000000000000002221
:1008C8001209CD7FB412084C7F0712084C1209CDCB
:1008D8007F0112084CC20712094F8F4CC207120938
:1008E8004F8F47D20712094F8F51120A1EE547FE54
:0A08F8007C00E4254CFFEC3EFE22DC
:10072C0030910930920630950320964820910F7F26
:10073C00147E0012099A2091057E007F01222092DE
:10074C000F7F147E0012099A2092057E007F0222F0
:10075C0020950F7F147E0012099A2095057E007F4C
:10076C00032220960F7F147E0012099A2096057E94
:08077C00007F0422E4FEFF22CD
:100A6000438901758ACD758CF8D28CD2A9D2AF2278
:1009EA007401A807088002C333D8FCF59DE4F5BD5D
:0B09FA00F5BE43A204EF4488F5BC22C8
:020A0500AD073B
:100A070075BC00AFBDEF7F00FEACBEEC2FFFE43E30
:060A1700FEED448842BC24
:010A1D0022B6
:03000B0002000EE2
:10000E00C0E0C0F0C083C082C0D075D000C000C0B8
:0D001E0001C002C003C004C005C006C00739
:10002B00E4FBFAC2AF758ACD758CF8AF44120A05A2
:10003B008E548F55E5592402F559E43558F558E49B
:10004B003557F557E43556F556AE4AAF4BAC58AD70
:10005B0059C3ED9FF573EC9EF572C3E5559527E5F6
:10006B00549526502BAE4DAF4E7C007D051204C32C
:10007B007C007D031204B1D3E5739FE5729E4010A3
:10008B00E555955BE554955A500685545A85555B55
:10009B00D3E5559527E55495264011D3E555952382
:1000AB00E55495224006855422855523D3E5739458
:1000BB00FAE572648094805003020208D3E55595EB
:1000CB0027E5549526500302020830090302020863
:1000DB00AE4DAF4E7C007D051204C37C007D031238
:1000EB0004B1D3E5739FE5729E5003020208D20957
:1000FB00AE4AAF4BAC58AD59ED9FF54EEC9EF54D5E
:10010B00AF59AE58AD57AC568F4B8E4A8D498C4874
:10011B00300818C208757400E57425E02430F8A681
:10012B004D08A64E0574E574B40AED300B09C20BED
:10013B00D208D2AF02027B757400E57425E024323D
:10014B00F8E6FE08E6FFE57425E02430F8A606087D
:10015B00A607E57425E02430F8E6FE08E62BFBEE57
:10016B003AFA0574E574B409D1854D42854E43E5E1
:10017B00432BFBE5423A7C007D0AAF03FE1204C31E
:10018B00AA06AB07E4F9F87F607EEAFDFC12078450
:10019B008E528F53D3E55394C8E5529400400675A5
:1001AB0052007553C8C3E553941EE5529400500694
:1001BB0075520075531EAE52AF537C007D0A12046C
:1001CB00C3AF05ED2430F52EAE52AF537C007D64EA
:1001DB001204C37E007F0ACFCDCFCECCCE1204C388
:1001EB00EF2430F52DAE52AF537C007D641204C367
:1001FB00EF2430F52CB43003752C20D20AC3E5550F
:10020B009527E55495265033300930C209C3E523B1
:10021B00955BF546E522955AF545AE45AF467C0014
:10022B007D02120518E55B2FF527E55A3EF526856D
:10023B00262285272385265A85275BD3E57394C40D
:10024B00E572648094894026752602752700752215
:10025B0002752300755A02755B00AF59AE58AD5746
:10026B00AC568F4B8E4A8D498C48D20BC208D2AFFD
:10027B00D007D006D005D004D003D002D001D000D7
:0B028B00D0D0D082D083D0F0D0E03281
:0A099000C2A68F80D2A57F017E0071
:10099A00EF1FAC0670011E4C600A7D027CEFDCFE84
:0409AA00DDFC80EC04
:0109AE002226
:0E0A7000C2A7120990C2A57F017E0002099A5A
:0E0A7E00D2A7120990C2A57F017E0002099A3C
:100A3600AE07BE0104ED148006BE0209ED243F4454
:060A460080FF120A70227D
:100A4C007F38120A707F0C120A707F06120A707FB0
:040A5C0001020A7019
:060929008B688A69896AEF
:10092F00120A36E4F56BAB68AA69A96A856B827502
:0F093F008300120484FF6007120A7E056B80E7B5
:01094E002286
:080902008E6D8F6E8C6F8D70FD
:10090A007F017E00E4FBEBC39570E56F6480F874A9
:0E091A008098500AAC6DAD6E1204B10B80E8EF
:0109280022AC
:04088B008A6A8B6B7F
:10088F00120A36AA6CEAD39400402DEA24FFFDE445
:10089F0034FFFC7F0A7E00120902AC6AAD6BCFCD2C
:1008AF00CFCECCCE1204C37C007D0A1204C3ED243C
:0808BF0030FF120A7E1A80CD01
:0108C700220E
:10064700020296E493A3F8E493A34003F68001F231
:1006570008DFF48029E493A3F85407240CC8C333B4
:10066700C4540F4420C8834004F456800146F6DF83
:10067700E4800B010204081020408090080AE47E01
:10068700019360BCA3FF543F30E509541FFEE49378
:10069700A360010ECF54C025E060A840B8E493A33F
:1006A700FAE493A3F8E493A3C8C582C8CAC583CA6A
:1006B700F0A3C8C582C8CAC583CADFE9DEE780BE22
:01084B0000AC
:10048400BB010CE58229F582E5833AF583E022502D
:1004940006E92582F8E622BBFE06E92582F8E22277
:0D04A400E58229F582E5833AF583E4932291
:1004B100EF8DF0A4A8F0CF8CF0A428CE8DF0A42E5F
:0204C100FE2219
:1004C300BC000BBE0029EF8DF084FFADF022E4CC1D
:1004D300F875F008EF2FFFEE33FEEC33FCEE9DECE6
:1004E300984005FCEE9DFE0FD5F0E9E4CEFD22ED2C
:1004F300F8F5F0EE8420D21CFEADF075F008EF2F76
:10050300FFED33FD4007985006D5F0F222C398FD66
:050513000FD5F0EA2203
:10051800C2D5EC30E709B2D5E4C39DFDE49CFCEEFE
:1005280030E715B2D5E4C39FFFE49EFE1204C3C3AF
:10053800E49DFDE49CFC80031204C330D507C3E4AA
:060548009FFFE49EFE226D
:10054E00BB010A89828A83F0E5F0A3F0225006F7F8
:0F055E0009A7F01922BBFE06F3E5F009F31922F5
:10078400C2D5E830E70FB2D5E4C39BFBE49AFAE4A0
:1007940099F9E498F8EC30E717B2D51207BA1205C4
:1007A400A9E4C39BFBE49AFAE499F9E498F880037A
:1007B4001205A930D50DE4C39FFFE49EFEE49DFD20
:0407C400E49CFC2293
:10056D0075F008758200EF2FFFEE33FECD33CDCC45
:10057D0033CCC58233C5829BED9AEC99E5829840C8
:10058D000CF582EE9BFEED9AFDEC99FC0FD5F0D6A5
:10059D00E4CEFBE4CDFAE4CCF9A88222B800C1B9CF
:1005AD000059BA002DEC8BF084CFCECDFCE5F0CB0D
:1005BD00F97818EF2FFFEE33FEED33FDEC33FCEB46
:1005CD0033FB10D703994004EB99FB0FD8E5E4F901
:1005DD00FA227818EF2FFFEE33FEED33FDEC33FCEE
:1005ED00C933C910D7059BE99A4007EC9BFCE99AE2
:1005FD00F90FD8E0E4C9FAE4CCFB2275F010EF2F27
:10060D00FFEE33FEED33FDCC33CCC833C810D70726
:10061D009BEC9AE899400AED9BFDEC9AFCE899F861
:0E062D000FD5F0DAE4CDFBE4CCFAE4C8F922F4
:00000001FF
